:020000040800F2
:10000000B0080020890100087D0A00085707000891
:10001000790A0008390200082718000800000000CB
:10002000000000000000000000000000A10E000819
:100030003D04000800000000790B0008DD100008F6
:10004000A3010008A3010008A3010008A301000800
:10005000A3010008A3010008A3010008A3010008F0
:10006000A3010008A3010008A3010008A3010008E0
:10007000A3010008A3010008A3010008A3010008D0
:10008000A3010008A3010008A3010008A3010008C0
:10009000A3010008A3010008A30100085D040008F3
:1000A000A30100089D110008A3010008A301000896
:1000B00065120008A3010008FD130008A301000851
:1000C000A3010008A3010008A3010008A301000880
:1000D000A30100084516000861160008A3010008E6
:1000E000A3010008A3010008A301000800F002F822
:1000F00000F03AF80AA090E8000C82448344AAF188
:100100000107DA4501D100F02FF8AFF2090EBAE885
:100110000F0013F0010F18BFFB1A43F0010318473B
:10012000BC250000DC250000103A24BF78C878C147
:10013000FAD8520724BF30C830C144BF04680C60ED
:10014000704700000023002400250026103A28BF35
:1001500078C1FBD8520728BF30C148BF0B60704739
:100160001FB51FBD10B510BD00F033F81146FFF7E5
:10017000F7FF01F0CBFB00F051F803B4FFF7F2FFFB
:1001800003BC01F067FB00000948804709480047AD
:10019000FEE7FEE7FEE7FEE7FEE7FEE7FEE7FEE737
:1001A000FEE7FEE704480549054A064B7047000094
:1001B000E1100008ED000008B0020020B0080020A7
:1001C000B0040020B00400207047704770477047AB
:1001D0007047754600F02CF8AE4605006946534658
:1001E00020F00700854618B020B5FFF7DBFFBDE81B
:1001F00020404FF000064FF000074FF000084FF08E
:10020000000B21F00701AC46ACE8C009ACE8C0091E
:10021000ACE8C009ACE8C0098D46704710B504468B
:10022000AFF300802046BDE81040FFF7A6BF0000F6
:10023000004870474C02002000BFFEE72DE9F04760
:100240000446D4E9060101F0DFFD804641466068BE
:1002500001F0DCFC0646216801F002FC0546284658
:10026000216901F09FFD02D22069206208E0284642
:10027000616901F097FC02D26069206200E02562AA
:100280002846216A01F0C0FD07463946E06801F0C2
:10029000BDFC81464146A06801F0B8FC8246216859
:1002A00001F0DEFB0646494601F0AEFD2060BDE8E8
:1002B000F087000001684FF6FE72114001600021D6
:1002C000016041608160C1604B49884208D14A4960
:1002D0000839496841F00F01474A083A51608AE0FD
:1002E00045491431884208D143490839496841F0E9
:1002F000F001414A083A51607DE03F492831884287
:1003000008D13D490839496841F470613A4A083AD0
:10031000516070E038493C31884208D1364908398B
:10032000496841F47041344A083A516063E0324907
:100330005031884208D130490839496841F4702168
:100340002D4A083A516056E02B496431884208D161
:1003500029490839496841F47001274A083A51602F
:1003600049E025497831884208D12349083949684C
:1003700041F07061204A083A51603CE01F498842D0
:1003800006D1011F096841F00F01021F116032E020
:100390001A491431884208D11849091F096841F0E7
:1003A000F001164A121F116025E0144928318842D5
:1003B00008D11249091F096841F470610F4A121FE0
:1003C000116018E00D493C31884208D10B49091FE2
:1003D000096841F47041094A121F11600BE0074996
:1003E0005031884207D10549091F096841F470213D
:1003F000024A121F116070470800024008040240C0
:1004000010B50022026847F6F0739A430C6A8B68B5
:1004100023430C6923434C6923438C692343CC69F0
:1004200023434C6A23438C6A23431A430260CB68FC
:1004300043600B6883604B68C36010BD7047002148
:1004400009E0002201E0531C9AB240F628239A42A8
:10045000F9DB4B1C99B28142F3DB704710B52A4897
:1004600000882A490968401A41F22261884208D26C
:1004700027480068401C26490860202000F054F8F6
:1004800010BD2148008821490968081A41F22261FB
:10049000884208D21E480068401C1D490860202080
:1004A00000F042F8ECE71B480068401C194908605E
:1004B0001648006818490860134800881349086006
:1004C000154800680968884207D210480068124938
:1004D0000968401A114908600AE00F4800684FF6A1
:1004E000FF71081A094909680844401C0B49086053
:1004F0000A4800680A49B1FBF0F00A490880202048
:1005000000F012F800BFBBE72408004014000020F0
:10051000200000200C000020100000201800002007
:1005200080C3C9011C000020014908607047000019
:1005300014040140002123498279002A3AD00A4656
:10054000126803689A430B461A600A1D1268036812
:100550009A430B1D1A60027911440A6803681A4312
:100560000A60184A0832126803689A43154B083328
:100570001A601A1D126803689A43124B0C331A60F2
:100580004279102A0ED11A1F126803681A430D4BC4
:1005900008331A601A1D126803681A43094B0C339A
:1005A0001A600DE00749427911440A6803681A434A
:1005B0000A6005E0027911440A6803689A430A60F8
:1005C000704700000004014008B50121042000F03C
:1005D00069FBFC20ADF8000010208DF8030003201B
:1005E0008DF802006946044800F028F8042102480A
:1005F00000F0AFF808BD00000008014030B500224F
:100600008B071C0F0F2303FA04F20B4B8C1053F8CB
:1006100024309343084C8D1044F8253023468C1029
:1006200053F824308C07240F00FA04F42343024CBF
:100630008D1044F8253030BD080001402DE9F0410F
:10064000024600250026002000230024002791F800
:1006500003C00CF00F0591F803C00CF0100CBCF1B6
:10066000000F03D091F802C04CEA050591F800C0D4
:10067000BCF1000F31D0146800202BE04FF0010CCA
:100680000CFA00F3B1F800C00CEA03069E4220D138
:1006900083004FF00F0C0CFA03F7BC4305FA03FC80
:1006A0004CEA040491F803C0BCF1280F06D14FF0C6
:1006B000010C0CFA00FCC2F814C00AE091F803C067
:1006C000BCF1480F05D14FF0010C0CFA00FCC2F848
:1006D00010C0401C0828D1D31460B1F800C0BCF190
:1006E000FF0F34DD546800202EE000F1080C4FF0BD
:1006F000010808FA0CF3B1F800C00CEA03069E42A8
:1007000021D183004FF00F0C0CFA03F7BC4305FA1C
:1007100003FC4CEA040491F803C0BCF1280F05D196
:1007200000F1080C08FA0CF8C2F8148091F803C024
:10073000BCF1480F07D100F1080C4FF0010808FA8E
:100740000CF8C2F81080401C0828CED35460BDE8D5
:10075000F0810161704700BFFEE7000000B5102086
:100760004F4908601920FFF76AFE152001F05EF876
:10077000102001F05BF83F2001F058F8752001F0DF
:1007800055F8002001F052F85F2001F04FF8A0204A
:1007900001F04CF8512001F049F8A12001F046F891
:1007A000002001F043F8A22001F040F8602001F0A1
:1007B0003DF8A42001F03AF8A82001F037F85F20B6
:1007C00001F034F8B22001F031F8232001F02EF8C6
:1007D000B32001F02BF8F02001F028F8812001F07F
:1007E00025F87F2001F022F8BC2001F01FF81F201F
:1007F00001F01CF80A20FFF722FE822001F016F813
:10080000FE2001F013F80A20FFF719FEB12001F0D5
:100810000DF8212001F00AF8BB2001F007F80F20A5
:1008200001F004F8BE2001F001F81F2000F0FEFFE7
:10083000B82000F0FBFF042000F0F8FF062000F0D5
:10084000F5FF082000F0F2FF0A2000F0EFFF0C2077
:1008500000F0ECFF0E2000F0E9FF102000F0E6FFB2
:10086000122000F0E3FF142000F0E0FF162000F05B
:10087000DDFF182000F0DAFF1A2000F0D7FF1C205F
:1008800000F0D4FF1E2000F0D1FF202000F0CEFFAA
:100890000A20FFF7D4FDAF2000F0C8FF00BD000024
:1008A00014080140002101600162054941600549C9
:1008B00081600549C1600549016105494161704791
:1008C0008FC2753DA69B443BFEFF7F3F0080ED44F9
:1008D00000808E441FB50121082000F0E3F920209C
:1008E000ADF8000048208DF8030069461348FFF773
:1008F000A5FE0121084600F0D5F905210120FFF7EA
:100900007DFE2020029000208DF80C000C208DF838
:100910000D0001208DF80E0002A8FFF70BFE172036
:100920008DF8040000208DF805008DF806000120E8
:100930008DF8070001A800F0A3F81FBD000C0140CE
:10094000F0B506460F461446002516E020788028AC
:1009500009DA22787119C8B2394600F04BFA641CE2
:10096000281DC5B209E07119C8B22246394600F007
:1009700005F9A41C05F10800C5B220780028E5D1CE
:10098000F0BD000010B50246002016E0C0F10703DC
:1009900042FA03F303F0010119B18023084C2360EC
:1009A00003E08023064C241D23602023044C241DD7
:1009B0002360241F2360431CD8B20828E6DB10BD47
:1009C0001008014010B50446082003490860E0B251
:1009D000FFF7D8FF10BD00001008014010B5024617
:1009E000002016E0C0F1030342FA03F303F0010113
:1009F00019B18023084C236003E08023064C241D9A
:100A000023602023044C241D2360241F2360431CE7
:100A1000D8B20428E6DB10BD100801402DE9F041F2
:100A200007460D4616461C460121084600F01AF9F5
:100A30003846FFF73FFC0E4804800E4805604660CC
:100A400010200C4988600846C4600020086180209E
:100A5000486100208861C86108624FF48050486294
:100A6000002088623846FFF7CBFCBDE8F08100002B
:100A70003E000020FC01002000BFFEE770470000A0
:100A800070B5002100230F22C47804B3154C2468EC
:100A900004F4E064C4F5E064210AC1F10403CA402F
:100AA000447804FA03F184781440214309010E4C80
:100AB0000678A155047804F01F050124AC400578A0
:100AC0006D11AD0005F1E025C5F8004109E004789D
:100AD00004F01F050124AC40044D0678761145F85A
:100AE000264070BD0CED00E000E400E080E100E095
:100AF00002490143024A1160704700000000FA05F4
:100B00000CED00E010B5002000F046F90EA2002127
:100B10000846FFF715FF0FA214210020FFF710FF72
:100B200010A228210020FFF70BFF0FA23C2100207C
:100B3000FFF706FF0BA250210020FFF701FF0A205C
:100B400000F0AEFE10BD000020204C6975205961F8
:100B50006E67000053657453706565643A52504D7A
:100B6000000000003A0000004D6561537065656447
:100B70003A52504D00000000704700002DE9F04748
:100B800005460C469046152000F050FE05F1100178
:100B9000C8B200F04BFE05F11701C8B200F046FEE6
:100BA000752000F043FEE0B200F040FE04F10F01BA
:100BB000C8B200F03BFE0820284908601020091D3B
:100BC0000860002646E0C6EBC60000EB8000244922
:100BD000085C98F8001088423BD1C6EBC60000EBD9
:100BE00080001F490844407898F80110884230D1AD
:100BF00000272CE0C6EBC60000EB80001849084433
:100C0000C01C10F807A04FF0000910E00AF08000A7
:100C1000802803D1FF20FFF7E1FE02E00020FFF76C
:100C2000DDFE4FF6FF7000EA4A0A09F10109B9F149
:100C3000080FEBD307F0010028B1601CC4B2A5F186
:100C40000800C5B202E005F10800C5B27F1C202FE4
:100C5000D0D3761C402EB6D3BDE8F08710080140F3
:100C6000F224000829B1064A52690243044B5A6132
:100C700004E0034A52698243014B5A617047000005
:100C80000010024029B1064AD2690243044BDA61DE
:100C900004E0034AD2698243014BDA6170470000E5
:100CA0000010024029B1064A92690243044B9A613E
:100CB00004E0034A92698243014B9A617047000045
:100CC0000010024030B500210022002400232D4DE9
:100CD0006D6805F00C0121B1042905D0082923D144
:100CE00005E0294D056022E0274D05601FE0254DF8
:100CF0006D6805F47012234D6D6805F4803402258B
:100D000005EB92421CB9214D554305600BE01D4D8A
:100D10006D6805F400351DB11C4D5543056002E0BA
:100D2000194D5543056002E0174D056000BF00BF37
:100D3000144D6D6805F0F0010909154D6B5C0568EF
:100D4000DD4045600F4D6D6805F4E061090A104D06
:100D50006B5C4568DD4085600A4D6D6805F4605147
:100D6000C90A0B4D6B5C4568DD40C560054D6D687B
:100D700005F44041890B074D6B5CC568B5FBF3F585
:100D8000056130BD0010024000127A0000093D00EC
:100D9000440000205400002070B50646152000F0E5
:100DA00045FD102000F042FD3F2000F03FFD752082
:100DB00000F03CFD002000F039FD5F2000F036FD22
:100DC00010200B49086000240AE0002504E03046AA
:100DD00000F060F8681C85B2302DF8DB601C84B22E
:100DE000602CF2DB10200249091F086070BD000072
:100DF000140801402DE9F04F05460C4616464FF009
:100E0000100B152000F012FD05F11001C8B200F022
:100E10000DFD05F11301C8B200F008FD752000F0CA
:100E200005FDE0B200F002FD04F10F01C8B200F0D0
:100E3000FDFC0820154908601020091D0860A6F176
:100E40002000C6B24FEA061A00271BE00AEB070093
:100E50000F4911F800804FF000090FE008F0800002
:100E600018B1FF20FFF7BAFD02E00020FFF7B6FD42
:100E70004FEA48604FEA106809F10109B9F1080F1B
:100E8000ECD37F1C5F45E1D3BDE8F08F1008014033
:100E9000F21E000810B504462046FFF793FD10BD72
:100EA000704710B500F002F810BD00000CB500202E
:100EB000019000903348006840F480303149086068
:100EC00000BF3048006800F4003000900198401CDA
:100ED0000190009818B90198B0F5A06FF1D1294898
:100EE000006800F4003010B10120009001E0002003
:100EF00000900098012843D12348006840F010007A
:100F0000214908600846006820F003000860084690
:100F1000006840F0020008601A48406819494860BB
:100F20000846406848600846406840F48060486071
:100F30000846406820F47C1048600846406840F449
:100F4000E81048600846006840F08070086000BF04
:100F50000C48006800F000700028F9D0094840688B
:100F600020F00300074948600846406840F002004E
:100F7000486000BF0348406800F00C000828F9D121
:100F80000CBD000000100240002002401CB50020F3
:100F9000009001904649886900F0D0FD80B24FF47E
:100FA0007A7190FBF1F00A2190FBF1F201FB120043
:100FB0003030C0B28DF800003D49886900F0BEFDB8
:100FC00080B2642190FBF1F00A2190FBF1F201FB69
:100FD00012003030C0B28DF801003549886900F048
:100FE000ADFD80B20A2190FBF1F090FBF1F201FB24
:100FF00012003030C0B28DF802002D49886900F02F
:101000009DFD80B20A2190FBF1F201FB120030300D
:10101000C0B28DF803006A4628210020FFF790FC3B
:101020002349C86900F08AFD80B24FF47A7190FBC1
:10103000F1F00A2190FBF1F201FB12003030C0B256
:101040008DF800001A49C86900F078FD80B264216B
:1010500090FBF1F00A2190FBF1F201FB120030301D
:10106000C0B28DF801001249C86900F067FD80B276
:101070000A2190FBF1F090FBF1F201FB12003030FD
:10108000C0B28DF802000A49C86900F057FD80B26D
:101090000A2190FBF1F201FB12003030C0B28DF852
:1010A00003006A4650210020FFF74AFC1CBD0000E7
:1010B00028020020042808D14FF0E021096941F0FE
:1010C00004014FF0E022116107E04FF0E0210969CF
:1010D00021F004014FF0E0221161704770470000D9
:1010E00010B51348006840F0010011490860084637
:1010F0004068104908400E494860084600680E499B
:1011000008400B4908600846006820F48020086009
:101110000846406820F4FE0048604FF41F008860D5
:10112000FFF7BFFE4FF000600449086010BD0000EB
:10113000001002400000FFF8FFFFF6FE08ED00E09F
:101140007FB505460C460121C802FFF7ABFDADF89F
:101150000850ADF804400020ADF80A00ADF80600D4
:1011600001A90D4800F01CFA012211460A4800F0BE
:10117000BCF919208DF8000000208DF80100012035
:101180008DF802008DF803006846FFF779FC012115
:10119000014800F07EF97FBD002C014010B501210F
:1011A000264800F091F9002847D00121234800F09B
:1011B0006DF92348006823490860234800882049C6
:1011C0000860204800680968884207D21C48006807
:1011D0001C490968401A1D4908600AE0194800685E
:1011E0004FF6FF71081A164909680844401C174950
:1011F00008601748008800F0C1FC1649886116484D
:10120000008800F0BBFC1349C8611448007810B195
:101210000846FFF713F80E48008820B900200D4952
:1012200008600F4808620D48007830B10949086A23
:1012300000F084FC044600F0ADF910BD002C014024
:101240002800002024000020240800402C0000205A
:1012500000000020280200201C0000203000002098
:101260000080894410B50121880700F02DF900287D
:101270003BD00121880700F009F91C480088C828E4
:1012800005DA1A480088401C184908802DE01848E3
:10129000006818490968884202D100201649088070
:1012A00014480068124908601448007888B114484E
:1012B0000078022809DA12480078401C10490870AA
:1012C00040F2794000F066F90CE001200D49087009
:1012D00008E000200A4908700A49087040F24C40B2
:1012E00000F058F900200149088010BD32000020AC
:1012F000380000200C0000201C0000200600002008
:101300003C000020300000207FB505460C4601213E
:101310000846FFF7B7FCADF80850ADF804400020D0
:10132000ADF80A00ADF8060001A94FF0804000F0CA
:1013300037F901221146900700F0D7F81C208DF8EC
:10134000000000208DF8010002208DF8020001202D
:101350008DF803006846FFF793FB0121880700F032
:1013600098F87FBD30B589B005460C4601210220B2
:10137000FFF788FC01210C20FFF794FC18208DF862
:10138000230003208DF822000220ADF8200008A9D8
:101390001848FFF753F9ADF81850ADF81440002085
:1013A000ADF81A00ADF8160005A9134800F0F8F8DA
:1013B0007020ADF804000120ADF806000020ADF863
:1013C0000A000220ADF80C0001A90B4800F096F8C5
:1013D0000121094800F069F80821074800F0CCF81D
:1013E0000121054800F046F80121034800F051F8BA
:1013F00009B030BD000C01400004004010B50121CF
:10140000044800F061F818B10121024800F03EF8EC
:1014100010BD0000000800407FB505460C460121C4
:101420000420FFF72FFCADF80850ADF80440002071
:10143000ADF80A00ADF8060001A90D4800F0B0F8BB
:10144000012211460A4800F050F81E208DF80000D5
:1014500003208DF801008DF8020001208DF80300B3
:101460006846FFF70DFB0121014800F012F87FBD2F
:101470000008004021B1028842F08002028004E0AE
:1014800002884FF67F731A4002807047CA43028277
:10149000704721B1028842F00102028004E0028814
:1014A0004FF6FE731A400280704731B1B0F8442005
:1014B00042F40042A0F8442005E0B0F84420C2F312
:1014C0000E02A0F84420704730B5024600200023E9
:1014D0000024158A05EA0103958905EA010413B180
:1014E0000CB1012000E0002030BD1AB183890B430C
:1014F000838102E083898B438381704770B500222A
:1015000000230024058C4EF6FF7635400584038CBD
:101510008488828B48F6FF752A404FF6FF452A40A3
:101520000D884FF6FF7606EA05252A434DF6FF752E
:101530002B400D8906EA05352B434D8806EA053513
:101540002B430B4DA84202D00A4DA84208D14BF6BE
:10155000FF752C408D894FF6FF7606EA85152C43E2
:1015600084808283CD88A0F84050038470BD000041
:10157000002C0140003401400A460021818B4FF2CB
:10158000FF7319404FF6FF7303EA02231943818367
:1015900070470000014A108070470000400400407E
:1015A000002202881D4B98420ED01D4B98420BD052
:1015B000B0F1804F08D01B4B984205D01A4B98428F
:1015C00002D01A4B984204D14FF68F731A404B88C1
:1015D0001A43174B984207D0164B984204D04FF647
:1015E000FF431A40CB881A4302808B8883850B887F
:1015F00003850A4B98420BD0094B984208D00E4BFA
:10160000984205D00D4B984202D00D4B984201D123
:101610000B7A03860123838270470000002C01406F
:10162000003401400004004000080040000C00406D
:101630000010004000140040004001400044014000
:101640000048014010B540F22551044800F02BF845
:1016500018B1024800F0E2F8C4B210BD00380140F1
:1016600010B540F22551044800F01DF818B10248A9
:1016700000F0D4F8C4B210BD0044004021B182890A
:1016800042F40052828104E082894DF6FF731A40D1
:10169000828170471AB1838A0B43838202E0838A76
:1016A0008B438382704770B50246002400230025D7
:1016B000002040F66A16B14200D100BFC1F34215C6
:1016C00001F01F03012606FA03F3012D02D19689CA
:1016D000334006E0022D02D1168A334001E0968A9B
:1016E00033400C12012606FA04F41688344013B174
:1016F0000CB1012000E0002070BDF0B503460024CD
:1017000000260025002040F66A17B94200D100BF2C
:101710001846C1F3421401F01F06012707FA06F527
:10172000012C01D10C3004E0022C01D1103000E07A
:1017300014301AB107682F43076002E00768AF430F
:101740000760F0BD2DE9F04786B005460E4600243F
:10175000A24600BFA1460027B08900B100BF2F46B6
:101760002C8A4CF6FF700440F08804432C82AC892C
:101770004EF6F3100440B08831890843718908435C
:101780000443AC81AC8A4FF6FF400440B089044367
:10179000AC8201A8FFF796FA1F48874202D1DDF814
:1017A00010A001E0DDF80CA0A88900F4004040B1D1
:1017B0000AEBCA0000EB0A1031684900B0FBF1F8EF
:1017C00007E00AEBCA0000EB0A1031688900B0FBA1
:1017D000F1F86420B8FBF0F004012009642101FB5A
:1017E0001089A88900F4004040B1322000EBC90004
:1017F000B0FBF1F000F00700044308E0322000EBFA
:1018000009106421B0FBF1F000F00F0004432C81BB
:1018100006B0BDE8F0870000003801400146888826
:10182000C0F30800704700BFFEE7000010B5044693
:10183000102007490860082008602046FFF7A2F83A
:1018400008200349091F08601020086010BD00002F
:1018500014080140014600BF0020704710B56FF02A
:101860000400FFF727FC0A4800680A49B0FBF1F0C2
:10187000094908700846007800EB4001C1EBC01030
:101880004FF6FF7101EAC0000449088010BD000056
:101890005800002000127A00400000204200002082
:1018A0000146114A12884A434FF0E0235A61002250
:1018B0009A611A46126942F001021A6100BF4FF0A4
:1018C000E022106900F001021AB100F48032002A0F
:1018D000F5D04FF0E022126922F001024FF0E02330
:1018E0001A6100229A617047420000200548008872
:1018F00018B900200449087002E00120024908706C
:10190000704700000000002006000020FFF7A6FF3F
:101910002648FEF7C7FF4FF4A060FFF7E9F84FF441
:10192000612000F04DF84FF4C873214A2149224844
:10193000FFF774F8012280211E48001FFFF7AAFE5E
:10194000472140F6C410FFF70DFD40F24C40FFF771
:1019500021FE47214FF4FA60FFF7D6FC8F214FF6A6
:10196000FF70FFF759FD47214FF4FA60FFF7E8FBDE
:10197000FEF7B0FFFEF728FEFEF7F0FEFFF7C2F815
:1019800013E00E480078401C0C490870FFF7AEFFCA
:101990000A480078282190FBF1F201FB120008B9F7
:1019A000FFF7F4FA0A20FFF77BFFEAE7280200209E
:1019B0006C00002004380140440002400700002071
:1019C00010B586B00446012144F20400FFF76AF91D
:1019D0004FF40070ADF8140003208DF816001820A5
:1019E0008DF8170005A91C48FEF728FE4FF480600B
:1019F000ADF8140004208DF8170005A91648FEF76D
:101A00001DFE25208DF8000003208DF801008DF8C3
:101A1000020001208DF803006846FFF731F80194B9
:101A20000020ADF80800ADF80A00ADF80C00ADF8E4
:101A300010000C20ADF80E0001A90848FFF782FE47
:101A4000012240F225510548FFF757FE01210348C6
:101A5000FFF714FE06B010BD000801400038014039
:101A600090EA010F48BF81F0004100F1D481421A91
:101A70003CBF801A89184FEAD0524FF07F4C1CEAC5
:101A8000410FA2EBD15318BF9CEA026F00F03B80DC
:101A90004FF0004C4CEA00204CEA012121FA03FCF3
:101AA00010EB0C0C1ED202F1FF325FEA1C2040EB5F
:101AB000C25038BF70471CF07F0F4FEA400C18BF70
:101AC000BCF17F4F38BF7047C3F12003994008BF76
:101AD00020F00100BCF17F4F38BF7047A0F1C0403B
:101AE00000F05BB94FEA3C00000A40EBC25028BF4F
:101AF0001CF0FF0F4FEA400CE6D018BFBCF17F4F3F
:101B000038BF7047EAE79CEA026F05D010EA5C0F25
:101B100008BF00F00040704710B500F0F8F800BFB3
:101B200064FBBE3E401058BFC0F14040491058BF52
:101B3000C1F140418142EFF300807047C10DD1F106
:101B40009E0206DB4FEA002343F0004323FA02F033
:101B50007047004207D54FEA4001B1F1FE4F02D273
:101B60004FF00000704710B500F0D1F84992248082
:101B7000002070476FEA200070470000B0FA80F341
:101B800010FA03F2C3F19D030AD0D90501EB12202C
:101B9000530638BF704700F1010008BF20F0010074
:101BA0007047000050EA010C00F113801CF5000F93
:101BB00058BFBCF5000F01D48842704707D710F515
:101BC000000F58BF11F5000F15D4884270478942A5
:101BD00070471CF5000F04D5BCF5000FF7D5814206
:101BE00070474FF0807C1CEB400F38BF1CEB410F5F
:101BF00001D28142704710B500F089F89224490063
:101C00004FF000504FF08051FFF78CBF4FF47F0C26
:101C10001CEAD0121EBF1CEAD11392EA0C0F93EA01
:101C20000C0F00F0478090EA010F48BF42F4807229
:101C30004FF0004C4CEA00204CEA012102EB030279
:101C4000A0FB0113A2F50002002918BF43F0010315
:101C50005B0028BF4FEA330342EB22425FEA132CBA
:101C60004CEBC2502EBFBCEB436FB2F57C0F7047FC
:101C70004FEA036CBCF1004F08BF20F00100B2F541
:101C80007C0F38BF70470BD582F0FF0212F5803F02
:101C9000C8BF704700F1C040D8BF00F00040704797
:101CA00000F5000C5FEA4C0C48BF7047B0F1C04033
:101CB00000F073B890EA010F0CEAD11348BF42F468
:101CC0008072624538BF634504D280EA010000F0AB
:101CD0000040704710B500F01AF800BF8900013EBF
:101CE00000F007B800F009B85FEA410C5FEA1C6C2D
:101CF00008D080EA010000F050B85FEA400C5FEACB
:101D00001C6CF6D14FF00040A0F5800070470EF13A
:101D1000020E2EF0030E5EF8044B244204D44FEA68
:101D20004102B2F17F4F11D84FEA4003B3F17F4F28
:101D30000CD80ED14FEAD07CB2F17F4F0CEB4C0C9B
:101D40000CF1020C08BF4CEBD17C04E04FF0080C06
:101D500001E04FEAD17C0CEB4C0324FA03F404F0CD
:101D60000704B4F1040C06D20EEB840CBDE810405D
:101D70004CF0010C6047DFE80CF0070802024FF05E
:101D80000040A0F5800010BD0846420018BFD2F107
:101D9000807288BF00F0004010BDFF2141EAD050A2
:101DA000C005704751EA000C00F113801CF5000FCC
:101DB00058BFBCF5000F01D48142704707D711F519
:101DC000000F58BF10F5000F15D4814270478942AB
:101DD00070471CF5000F04D5BCF5000FF7D58842FD
:101DE00070474FF0807C1CEB410F38BF1CEB400F5D
:101DF00001D28842704780EA010081EA000180EA4E
:101E00000100FFF7F8BE000090EA010F48BF81F023
:101E100000413FF52CAE421A04D882F00042A0EBFC
:101E2000020011444FEAD0524FF07F4C1CEA410FA0
:101E3000A2EBD15318BF9CEA026F4AD04FF0004C7E
:101E40004CEA00204CEA012121FA03FCB0EB0C0C17
:101E50000FD412F0FE0F36D05FEA4C001DD50012F1
:101E600040EBC25038BF70471CF03F0F18BF70479F
:101E70000BE0A2F101025FEA1C2040EBC25038BF28
:101E800070471CF07F0F18BF7047C3F120039940C3
:101E900014BF401E20F00100704780084FEA122353
:101EA00008BF7047B0FA80FCA2EB0C02CCF1280C02
:101EB00060FA0CF093EA122F04BF00EBC250704797
:101EC0004FEAC3707047130A5FEADC1008BF70471F
:101ED000F6E79CEA026F04D010EA5C0F08BF00200E
:101EE000704710B5FFF713FF40DFF63E81F000406A
:101EF000704700000000000000000000000000002B
:101F000000000000183C3C3C18181800181800008D
:101F1000000000666666240000000000000000006B
:101F200000000000006C6CFE6C6C6CFE6C6C0000C1
:101F3000000018187CC6C2C07C0686C67C18180033
:101F4000000000000000C2C60C183060C686000009
:101F500000000000386C6C3876DCCCCCCC7600000D
:101F60000000003030306000000000000000000081
:101F7000000000000C18303030303030180C0000F9
:101F80000000000030180C0C0C0C0C0C1830000079
:101F900000000000000000663CFF3C6600000000FE
:101FA0000000000000000018187E18180000000053
:101FB00000000000000000000000001818183000A9
:101FC000000000000000000000FE00000000000013
:101FD00000000000000000000000000018180000D1
:101FE00000000000000002060C183060C0800000F5
:101FF000000000007CC6C6CED6D6E6C6C67C000071
:10200000000000001838781818181818187E0000FA
:10201000000000007CC6060C183060C0C6FE000040
:10202000000000007CC606063C060606C67C0000D2
:10203000000000000C1C3C6CCCFE0C0C0C1E0000C4
:1020400000000000FEC0C0C0FC0E0606C67C0000FA
:10205000000000003860C0C0FCC6C6C6C67C0000D8
:1020600000000000FEC606060C18303030300000BC
:10207000000000007CC6C6C67CC6C6C6C67C000082
:10208000000000007CC6C6C67E0606060C7800006E
:1020900000000000000018180000001818000000E0
:1020A00000000000000018180000001818300000A0
:1020B0000000000000060C18306030180C0600000C
:1020C0000000000000000000FE0000FE0000000014
:1020D00000000000006030180C060C183060000092
:1020E000000000007CC6C60C181818001818000064
:1020F00000000000007CC6C6DEDEDEDCC07C000026
:102100000000000010386CC6C6FEC6C6C6C6000079
:1021100000000000FC6666667C66666666FC000081
:10212000000000003C66C2C0C0C0C0C2663C0000E7
:1021300000000000F86C6666666666666CF8000073
:1021400000000000FE6662687868606266FE00005B
:1021500000000000FE6662687868606060F0000061
:10216000000000003C66C2C0C0DEC6C6663A000081
:1021700000000000C6C6C6C6FEC6C6C6C6C600006B
:10218000000000003C18181818181818183C000017
:10219000000000001E0C0C0C0C0CCCCCCC78000009
:1021A00000000000E6666C6C78786C6666E60000FD
:1021B00000000000F06060606060606266FE000029
:1021C00000000000C6EEFEFED6C6C6C6C6C60000AB
:1021D00000000000C6E6F6FEDECEC6C6C6C600009B
:1021E00000000000386CC6C6C6C6C6C66C38000003
:1021F00000000000FC6666667C60606060F00000C5
:10220000000000007CC6C6C6C6C6C6D6DE7C0C0E64
:1022100000000000FC6666667C6C666666E6000090
:10222000000000007CC6C660380C06C6C67C0000F4
:10223000000000007E7E5A1818181818183C00007C
:1022400000000000C6C6C6C6C6C6C6C6C67C00001C
:1022500000000000C6C6C6C6C6C6C66C3810000060
:1022600000000000C6C6C6C6C6D6D6FE6C6C00000E
:1022700000000000C6C66C6C38386C6CC6C6000026
:1022800000000000666666663C181818183C0000DE
:1022900000000000FEC6860C183060C2C6FE0000BA
:1022A000000000003C30303030303030303C000036
:1022B000000000000080C0E070381C0E0602000024
:1022C000000000003C0C0C0C0C0C0C0C0C3C000036
:1022D000000010386CC60000000000000000000084
:1022E000000000000000000000000000000000FFEF
:1022F0000000303018000000000000000000000066
:1023000000000000000000780C7CCCCCCC760000F3
:1023100000000000E06060786C66666666DC0000C5
:10232000000000000000007CC6C0C0C0C67C0000E9
:10233000000000001C0C0C3C6CCCCCCCCC7600001B
:10234000000000000000007CC6FEC0C0C67C00008B
:1023500000000000386C6460F060606060F00000B5
:102360000000000000000076CCCCCCCCCC7C0CCCA7
:1023700078000000E060606C7666666666E60000E5
:10238000000000001818003818181818183C000031
:10239000000000000606000E060606060606666633
:1023A0003C000000E06060666C78786C66E60000D7
:1023B000000000003818181818181818183C0000E9
:1023C00000000000000000ECFED6D6D6D6D60000F5
:1023D00000000000000000DC6666666666660000BD
:1023E000000000000000007CC6C6C6C6C67C000017
:1023F00000000000000000DC66666666667C6060C7
:10240000F000000000000076CCCCCCCCCC7C0C0CD6
:102410001E000000000000DC7662606060F00000DA
:10242000000000000000007CC660380CC67C000084
:1024300000000000103030FC30303030361C00001E
:1024400000000000000000CCCCCCCCCCCC7600004E
:102450000000000000000066666666663C1800002A
:1024600000000000000000C6C6C6D6D6FE6C000004
:1024700000000000000000C66C3838386CC6000050
:1024800000000000000000C6C6C6C6C6C67E060C18
:10249000F8000000000000FECC183060C6FE00000E
:1024A000000000000E18181870181818180E0000F8
:1024B0000000000018181818001818181818000044
:1024C00000000000701818180E1818181870000076
:1024D0000000000076DC00000000000000000000AA
:1024E00000000000000010386CC6C6C6FE000000E8
:1024F0000000D6A700010001000104FFFE01000159
:10250000003FF00820082004400280010002800CF7
:1025100060301EC004B3D60010401040105013F8B5
:10252000FC40104817FC18103014D7FE1210111080
:102530001110101050502020BAE100111011101786
:10254000FC1110FD1417FE30483BFC564853F8921E
:102550004813F810001110130C1404CAFA000400F8
:1025600025FC25042488245024202450248E07048C
:1025700001103FF8082008200444FFFE0000C6C1F7
:102580000000083FFC200820083FF8222021482FA7
:10259000FC222022243FFE222022204220842008E8
:1025A00020B5E7000200020002107FF8421042103E
:1025B0007FF0421042107FF0421002000204020439
:1025C00001FC0000BBB0000010403833C0104000D8
:1025D000400044F7FE1040104813FC120812081681
:1025E000081A0813F80208A3BA000000000000004F
:1025F00000000000000006000F000F0006000000B1
:1026000006000F000F0006000000BAC30010001102
:10261000FC10041008FC102420242427FE2420444D
:1026200020282010202820442084A00040EED20042
:10263000100815FC1F00210021087DFC91081508D9
:10264000FF0811F8110011001500190411FE000017
:10265000C8F3000404437E3104142485F444444444
:1026600044144415F42444E444244425F424042468
:10267000142408BFC60004100E10F890085008106B
:10268000FE9008501C141A1E29F0281048108810BB
:10269000081008100810BCBC00104010401048136F
:1026A000FCFC401040104013F81A083110D11010F3
:1026B000A0104010B0510E2604B4E70000400040C6
:1026C00000400044FFFE0040004008400440044039
:1026D000004000400040004001400080FC2600080F
:1026E000000000206C000000280100086827000896
:1026F0006C000020440800004401000800000000B5
:1027000000000000000000000000000000000000C9
:1027100000000000000000000000000000000000B9
:1027200000000000000000000000000000000000A9
:102730000000000000000000000000000000000099
:102740000000000001020304010203040607080957
:102750000204060800A24A04000000000000000075
:08276000010203040607080949
:04000005080000ED02
:00000001FF
